{
  "_format": "hh-sol-artifact-1",
  "contractName": "GulfFlowEscrowPolicy",
  "sourceName": "contracts/GulfFlowEscrowPolicy.sol",
  "abi": [
    {
      "anonymous": false,
      "inputs": [
        {
          "indexed": true,
          "internalType": "bytes32",
          "name": "dealId",
          "type": "bytes32"
        },
        {
          "indexed": true,
          "internalType": "address",
          "name": "supplier",
          "type": "address"
        },
        {
          "indexed": false,
          "internalType": "uint256",
          "name": "advanceAmountUsdc6",
          "type": "uint256"
        }
      ],
      "name": "AdvanceReleased",
      "type": "event"
    },
    {
      "anonymous": false,
      "inputs": [
        {
          "indexed": true,
          "internalType": "bytes32",
          "name": "dealId",
          "type": "bytes32"
        }
      ],
      "name": "DealCancelled",
      "type": "event"
    },
    {
      "anonymous": false,
      "inputs": [
        {
          "indexed": true,
          "internalType": "bytes32",
          "name": "dealId",
          "type": "bytes32"
        }
      ],
      "name": "DealCompleted",
      "type": "event"
    },
    {
      "anonymous": false,
      "inputs": [
        {
          "indexed": true,
          "internalType": "bytes32",
          "name": "dealId",
          "type": "bytes32"
        },
        {
          "indexed": true,
          "internalType": "address",
          "name": "buyer",
          "type": "address"
        },
        {
          "indexed": true,
          "internalType": "address",
          "name": "supplier",
          "type": "address"
        },
        {
          "indexed": false,
          "internalType": "string",
          "name": "invoiceRef",
          "type": "string"
        },
        {
          "indexed": false,
          "internalType": "uint256",
          "name": "invoiceAmountUsdc6",
          "type": "uint256"
        },
        {
          "indexed": false,
          "internalType": "uint256",
          "name": "advanceAmountUsdc6",
          "type": "uint256"
        },
        {
          "indexed": false,
          "internalType": "bytes32",
          "name": "documentHash",
          "type": "bytes32"
        }
      ],
      "name": "DealLocked",
      "type": "event"
    },
    {
      "anonymous": false,
      "inputs": [
        {
          "indexed": true,
          "internalType": "bytes32",
          "name": "dealId",
          "type": "bytes32"
        },
        {
          "indexed": false,
          "internalType": "bytes32",
          "name": "documentHash",
          "type": "bytes32"
        }
      ],
      "name": "DocumentsApproved",
      "type": "event"
    },
    {
      "inputs": [
        {
          "internalType": "bytes32",
          "name": "dealId",
          "type": "bytes32"
        },
        {
          "internalType": "bytes32",
          "name": "documentHash",
          "type": "bytes32"
        }
      ],
      "name": "approveDocuments",
      "outputs": [],
      "stateMutability": "nonpayable",
      "type": "function"
    },
    {
      "inputs": [
        {
          "internalType": "bytes32",
          "name": "dealId",
          "type": "bytes32"
        }
      ],
      "name": "cancelDeal",
      "outputs": [],
      "stateMutability": "nonpayable",
      "type": "function"
    },
    {
      "inputs": [
        {
          "internalType": "bytes32",
          "name": "dealId",
          "type": "bytes32"
        }
      ],
      "name": "completeDeal",
      "outputs": [],
      "stateMutability": "nonpayable",
      "type": "function"
    },
    {
      "inputs": [
        {
          "internalType": "bytes32",
          "name": "",
          "type": "bytes32"
        }
      ],
      "name": "deals",
      "outputs": [
        {
          "internalType": "address",
          "name": "buyer",
          "type": "address"
        },
        {
          "internalType": "address",
          "name": "supplier",
          "type": "address"
        },
        {
          "internalType": "uint256",
          "name": "invoiceAmountUsdc6",
          "type": "uint256"
        },
        {
          "internalType": "uint256",
          "name": "advanceAmountUsdc6",
          "type": "uint256"
        },
        {
          "internalType": "bytes32",
          "name": "documentHash",
          "type": "bytes32"
        },
        {
          "internalType": "string",
          "name": "invoiceRef",
          "type": "string"
        },
        {
          "internalType": "enum GulfFlowEscrowPolicy.Status",
          "name": "status",
          "type": "uint8"
        },
        {
          "internalType": "uint256",
          "name": "createdAt",
          "type": "uint256"
        }
      ],
      "stateMutability": "view",
      "type": "function"
    },
    {
      "inputs": [
        {
          "internalType": "bytes32",
          "name": "dealId",
          "type": "bytes32"
        }
      ],
      "name": "getDeal",
      "outputs": [
        {
          "components": [
            {
              "internalType": "address",
              "name": "buyer",
              "type": "address"
            },
            {
              "internalType": "address",
              "name": "supplier",
              "type": "address"
            },
            {
              "internalType": "uint256",
              "name": "invoiceAmountUsdc6",
              "type": "uint256"
            },
            {
              "internalType": "uint256",
              "name": "advanceAmountUsdc6",
              "type": "uint256"
            },
            {
              "internalType": "bytes32",
              "name": "documentHash",
              "type": "bytes32"
            },
            {
              "internalType": "string",
              "name": "invoiceRef",
              "type": "string"
            },
            {
              "internalType": "enum GulfFlowEscrowPolicy.Status",
              "name": "status",
              "type": "uint8"
            },
            {
              "internalType": "uint256",
              "name": "createdAt",
              "type": "uint256"
            }
          ],
          "internalType": "struct GulfFlowEscrowPolicy.Deal",
          "name": "",
          "type": "tuple"
        }
      ],
      "stateMutability": "view",
      "type": "function"
    },
    {
      "inputs": [
        {
          "internalType": "bytes32",
          "name": "dealId",
          "type": "bytes32"
        },
        {
          "internalType": "address",
          "name": "supplier",
          "type": "address"
        },
        {
          "internalType": "string",
          "name": "invoiceRef",
          "type": "string"
        },
        {
          "internalType": "uint256",
          "name": "invoiceAmountUsdc6",
          "type": "uint256"
        },
        {
          "internalType": "uint256",
          "name": "advanceAmountUsdc6",
          "type": "uint256"
        },
        {
          "internalType": "bytes32",
          "name": "documentHash",
          "type": "bytes32"
        }
      ],
      "name": "lockDeal",
      "outputs": [],
      "stateMutability": "nonpayable",
      "type": "function"
    },
    {
      "inputs": [
        {
          "internalType": "bytes32",
          "name": "dealId",
          "type": "bytes32"
        }
      ],
      "name": "releaseAdvance",
      "outputs": [],
      "stateMutability": "nonpayable",
      "type": "function"
    }
  ],
  "bytecode": "0x608060405234801561001057600080fd5b50610eed806100206000396000f3fe608060405234801561001057600080fd5b506004361061007d5760003560e01c806381cd872a1161005b57806381cd872a146100d3578063a8396e64146100fa578063faa86b4a1461010d578063fb74c9431461012057600080fd5b806330ca6b801461008257806351a6fad51461009757806351b7d535146100c0575b600080fd5b610095610090366004610a98565b610133565b005b6100aa6100a5366004610a98565b61023f565b6040516100b79190610b2f565b60405180910390f35b6100956100ce366004610a98565b6103b2565b6100e66100e1366004610a98565b610496565b6040516100b7989796959493929190610bb4565b610095610108366004610c19565b610573565b61009561011b366004610a98565b61086c565b61009561012e366004610cc9565b61096c565b60008181526020819052604090205481906001600160a01b031633146101745760405162461bcd60e51b815260040161016b90610ceb565b60405180910390fd5b60008281526020819052604090206002600682015460ff16600581111561019d5761019d610af7565b146101de5760405162461bcd60e51b8152602060048201526011602482015270191bd8dcc81b9bdd08185c1c1c9bdd9959607a1b604482015260640161016b565b60068101805460ff191660039081179091556001820154908201546040519081526001600160a01b039091169084907f579e8c3684493cb3cdbed389b05a611227266abaabfcd8794000f0676c5f5f319060200160405180910390a3505050565b604080516101008101825260008082526020820181905291810182905260608082018390526080820183905260a082015260c0810182905260e08101919091526000828152602081815260409182902082516101008101845281546001600160a01b03908116825260018301541692810192909252600281015492820192909252600382015460608201526004820154608082015260058201805491929160a0840191906102ec90610d0f565b80601f016020809104026020016040519081016040528092919081815260200182805461031890610d0f565b80156103655780601f1061033a57610100808354040283529160200191610365565b820191906000526020600020905b81548152906001019060200180831161034857829003601f168201915b5050509183525050600682015460209091019060ff16600581111561038c5761038c610af7565b600581111561039d5761039d610af7565b81526020016007820154815250509050919050565b60008181526020819052604090205481906001600160a01b031633146103ea5760405162461bcd60e51b815260040161016b90610ceb565b60008281526020819052604090206003600682015460ff16600581111561041357610413610af7565b146104575760405162461bcd60e51b815260206004820152601460248201527318591d985b98d9481b9bdd081c995b19585cd95960621b604482015260640161016b565b60068101805460ff1916600417905560405183907fb37ceee315dcda7248282a61b4d22b17bcb7bbde5ec0e75e1e1200b7ce2e41c990600090a2505050565b6000602081905290815260409020805460018201546002830154600384015460048501546005860180546001600160a01b039687169796909516959394929391926104e090610d0f565b80601f016020809104026020016040519081016040528092919081815260200182805461050c90610d0f565b80156105595780601f1061052e57610100808354040283529160200191610559565b820191906000526020600020905b81548152906001019060200180831161053c57829003601f168201915b505050506006830154600790930154919260ff1691905088565b6000878152602081905260409020546001600160a01b0316156105c65760405162461bcd60e51b815260206004820152600b60248201526a6465616c2065786973747360a81b604482015260640161016b565b6001600160a01b0386166106105760405162461bcd60e51b81526020600482015260116024820152701cdd5c1c1b1a595c881c995c5d5a5c9959607a1b604482015260640161016b565b600083116106535760405162461bcd60e51b815260206004820152601060248201526f1a5b9d9bda58d9481c995c5d5a5c995960821b604482015260640161016b565b6000821180156106635750828211155b6106a15760405162461bcd60e51b815260206004820152600f60248201526e696e76616c696420616476616e636560881b604482015260640161016b565b806106e75760405162461bcd60e51b8152602060048201526016602482015275191bd8dd5b595b9d081a185cda081c995c5d5a5c995960521b604482015260640161016b565b604051806101000160405280336001600160a01b03168152602001876001600160a01b0316815260200184815260200183815260200182815260200186868080601f01602080910402602001604051908101604052809392919081815260200183838082843760009201919091525050509082525060200160018152426020918201526000898152808252604090819020835181546001600160a01b03199081166001600160a01b03928316178355938501516001830180549095169116179092558201516002820155606082015160038201556080820151600482015560a082015160058201906107d99082610db0565b5060c082015160068201805460ff191660018360058111156107fd576107fd610af7565b021790555060e08201518160070155905050856001600160a01b0316336001600160a01b0316887f5da2726f0e0e9487ad3028c19192f4b15735e671bd3d2fa72ba9cdad1ddce448888888888860405161085b959493929190610e70565b60405180910390a450505050505050565b60008181526020819052604090205481906001600160a01b031633146108a45760405162461bcd60e51b815260040161016b90610ceb565b60008281526020819052604090206001600682015460ff1660058111156108cd576108cd610af7565b14806108f157506002600682015460ff1660058111156108ef576108ef610af7565b145b61092d5760405162461bcd60e51b815260206004820152600d60248201526c18d85b9b9bdd0818d85b98d95b609a1b604482015260640161016b565b60068101805460ff1916600517905560405183907f5988fa122da008f51dcb7e8062ab7e95218b45ba1195da9900d79f8e364dede990600090a2505050565b60008281526020819052604090205482906001600160a01b031633146109a45760405162461bcd60e51b815260040161016b90610ceb565b60008381526020819052604090206001600682015460ff1660058111156109cd576109cd610af7565b14610a075760405162461bcd60e51b815260206004820152600a6024820152691b9bdd081b1bd8dad95960b21b604482015260640161016b565b82816004015414610a4e5760405162461bcd60e51b81526020600482015260116024820152700c8dec6eadacadce840dad2e6dac2e8c6d607b1b604482015260640161016b565b60068101805460ff1916600217905560405183815284907f5f68500cd98b7515881dd731e1f8864baa8be11ba9f2804bd6ac96160f45b6be9060200160405180910390a250505050565b600060208284031215610aaa57600080fd5b5035919050565b6000815180845260005b81811015610ad757602081850181015186830182015201610abb565b506000602082860101526020601f19601f83011685010191505092915050565b634e487b7160e01b600052602160045260246000fd5b60068110610b2b57634e487b7160e01b600052602160045260246000fd5b9052565b60208152600060018060a01b03808451166020840152806020850151166040840152506040830151606083015260608301516080830152608083015160a083015260a08301516101008060c0850152610b8c610120850183610ab1565b915060c0850151610ba060e0860182610b0d565b5060e0949094015192909301919091525090565b6001600160a01b0389811682528816602082015260408101879052606081018690526080810185905261010060a08201819052600090610bf683820187610ab1565b915050610c0660c0830185610b0d565b8260e08301529998505050505050505050565b600080600080600080600060c0888a031215610c3457600080fd5b8735965060208801356001600160a01b0381168114610c5257600080fd5b9550604088013567ffffffffffffffff80821115610c6f57600080fd5b818a0191508a601f830112610c8357600080fd5b813581811115610c9257600080fd5b8b6020828501011115610ca457600080fd5b989b979a5050602001976060810135966080820135965060a090910135945092505050565b60008060408385031215610cdc57600080fd5b50508035926020909101359150565b6020808252600a908201526937b7363c90313abcb2b960b11b604082015260600190565b600181811c90821680610d2357607f821691505b602082108103610d4357634e487b7160e01b600052602260045260246000fd5b50919050565b634e487b7160e01b600052604160045260246000fd5b601f821115610dab576000816000526020600020601f850160051c81016020861015610d885750805b601f850160051c820191505b81811015610da757828155600101610d94565b5050505b505050565b815167ffffffffffffffff811115610dca57610dca610d49565b610dde81610dd88454610d0f565b84610d5f565b602080601f831160018114610e135760008415610dfb5750858301515b600019600386901b1c1916600185901b178555610da7565b600085815260208120601f198616915b82811015610e4257888601518255948401946001909101908401610e23565b5085821015610e605787850151600019600388901b60f8161c191681555b5050505050600190811b01905550565b60808152846080820152848660a0830137600060a08683010152600060a0601f19601f8801168301019050846020830152836040830152826060830152969550505050505056fea2646970667358221220f4b140280eba1fb3faad1faf85f5f07212080b6a1c46e24d3a01c383deec9afa64736f6c63430008180033",
  "linkReferences": {},
  "deployedLinkReferences": {}
}